{
  "_format": "hh-sol-artifact-1",
  "contractName": "WorldCupBet",
  "sourceName": "contracts/WorldCupBet.sol",
  "abi": [
    {
      "inputs": [],
      "stateMutability": "nonpayable",
      "type": "constructor"
    },
    {
      "anonymous": false,
      "inputs": [
        {
          "indexed": true,
          "internalType": "uint256",
          "name": "matchIndex",
          "type": "uint256"
        },
        {
          "indexed": true,
          "internalType": "address",
          "name": "sender",
          "type": "address"
        },
        {
          "indexed": false,
          "internalType": "uint256",
          "name": "amount",
          "type": "uint256"
        },
        {
          "indexed": false,
          "internalType": "uint256",
          "name": "timestamp",
          "type": "uint256"
        }
      ],
      "name": "Bet",
      "type": "event"
    },
    {
      "anonymous": false,
      "inputs": [
        {
          "indexed": true,
          "internalType": "uint256",
          "name": "matchIndex",
          "type": "uint256"
        },
        {
          "indexed": true,
          "internalType": "address",
          "name": "sender",
          "type": "address"
        },
        {
          "indexed": false,
          "internalType": "uint256",
          "name": "amount",
          "type": "uint256"
        },
        {
          "indexed": false,
          "internalType": "uint256",
          "name": "timestamp",
          "type": "uint256"
        }
      ],
      "name": "Claim",
      "type": "event"
    },
    {
      "anonymous": false,
      "inputs": [
        {
          "indexed": true,
          "internalType": "address",
          "name": "previousOwner",
          "type": "address"
        },
        {
          "indexed": true,
          "internalType": "address",
          "name": "newOwner",
          "type": "address"
        }
      ],
      "name": "OwnershipTransferred",
      "type": "event"
    },
    {
      "inputs": [
        {
          "internalType": "string",
          "name": "_team1",
          "type": "string"
        },
        {
          "internalType": "string",
          "name": "_team2",
          "type": "string"
        },
        {
          "internalType": "uint256",
          "name": "_time",
          "type": "uint256"
        },
        {
          "internalType": "string",
          "name": "_level",
          "type": "string"
        },
        {
          "internalType": "uint256",
          "name": "_team1AwardRate",
          "type": "uint256"
        },
        {
          "internalType": "uint256",
          "name": "_team2AwardRate",
          "type": "uint256"
        },
        {
          "internalType": "uint256",
          "name": "_drawAwardRate",
          "type": "uint256"
        }
      ],
      "name": "addMatch",
      "outputs": [
        {
          "internalType": "uint256",
          "name": "",
          "type": "uint256"
        }
      ],
      "stateMutability": "nonpayable",
      "type": "function"
    },
    {
      "inputs": [
        {
          "internalType": "uint256",
          "name": "_matchIndex",
          "type": "uint256"
        },
        {
          "internalType": "uint256",
          "name": "_choice",
          "type": "uint256"
        },
        {
          "internalType": "uint256",
          "name": "_amount",
          "type": "uint256"
        }
      ],
      "name": "bet",
      "outputs": [],
      "stateMutability": "nonpayable",
      "type": "function"
    },
    {
      "inputs": [
        {
          "internalType": "uint256",
          "name": "_matchIndex",
          "type": "uint256"
        }
      ],
      "name": "claim",
      "outputs": [
        {
          "internalType": "uint256",
          "name": "",
          "type": "uint256"
        }
      ],
      "stateMutability": "nonpayable",
      "type": "function"
    },
    {
      "inputs": [
        {
          "internalType": "uint256",
          "name": "_matchIndex",
          "type": "uint256"
        },
        {
          "internalType": "address",
          "name": "_beter",
          "type": "address"
        }
      ],
      "name": "getAwardAmount",
      "outputs": [
        {
          "internalType": "uint256",
          "name": "",
          "type": "uint256"
        }
      ],
      "stateMutability": "view",
      "type": "function"
    },
    {
      "inputs": [
        {
          "internalType": "uint256",
          "name": "_matchIndex",
          "type": "uint256"
        },
        {
          "internalType": "address",
          "name": "_beter",
          "type": "address"
        }
      ],
      "name": "getBetAmount",
      "outputs": [
        {
          "internalType": "uint256",
          "name": "",
          "type": "uint256"
        }
      ],
      "stateMutability": "view",
      "type": "function"
    },
    {
      "inputs": [
        {
          "internalType": "uint256",
          "name": "_matchIndex",
          "type": "uint256"
        },
        {
          "internalType": "address",
          "name": "_beter",
          "type": "address"
        }
      ],
      "name": "getChoice",
      "outputs": [
        {
          "internalType": "uint256",
          "name": "",
          "type": "uint256"
        }
      ],
      "stateMutability": "view",
      "type": "function"
    },
    {
      "inputs": [
        {
          "internalType": "uint256",
          "name": "_matchIndex",
          "type": "uint256"
        }
      ],
      "name": "getChoiceCounts",
      "outputs": [
        {
          "internalType": "uint256",
          "name": "",
          "type": "uint256"
        },
        {
          "internalType": "uint256",
          "name": "",
          "type": "uint256"
        },
        {
          "internalType": "uint256",
          "name": "",
          "type": "uint256"
        },
        {
          "internalType": "uint256",
          "name": "",
          "type": "uint256"
        }
      ],
      "stateMutability": "view",
      "type": "function"
    },
    {
      "inputs": [
        {
          "internalType": "address",
          "name": "_owner",
          "type": "address"
        },
        {
          "internalType": "address",
          "name": "_tokenAddress",
          "type": "address"
        }
      ],
      "name": "initialize",
      "outputs": [],
      "stateMutability": "nonpayable",
      "type": "function"
    },
    {
      "inputs": [],
      "name": "matchCount",
      "outputs": [
        {
          "internalType": "uint256",
          "name": "",
          "type": "uint256"
        }
      ],
      "stateMutability": "view",
      "type": "function"
    },
    {
      "inputs": [
        {
          "internalType": "uint256",
          "name": "",
          "type": "uint256"
        }
      ],
      "name": "matchInfos",
      "outputs": [
        {
          "internalType": "string",
          "name": "team1",
          "type": "string"
        },
        {
          "internalType": "string",
          "name": "team2",
          "type": "string"
        },
        {
          "internalType": "uint256",
          "name": "time",
          "type": "uint256"
        },
        {
          "internalType": "string",
          "name": "level",
          "type": "string"
        },
        {
          "internalType": "uint256",
          "name": "result",
          "type": "uint256"
        },
        {
          "internalType": "uint256",
          "name": "betAmount",
          "type": "uint256"
        },
        {
          "internalType": "uint256",
          "name": "awardAmount",
          "type": "uint256"
        },
        {
          "internalType": "uint256",
          "name": "team1AwardRate",
          "type": "uint256"
        },
        {
          "internalType": "uint256",
          "name": "team2AwardRate",
          "type": "uint256"
        },
        {
          "internalType": "uint256",
          "name": "drawAwardRate",
          "type": "uint256"
        }
      ],
      "stateMutability": "view",
      "type": "function"
    },
    {
      "inputs": [],
      "name": "owner",
      "outputs": [
        {
          "internalType": "address",
          "name": "",
          "type": "address"
        }
      ],
      "stateMutability": "view",
      "type": "function"
    },
    {
      "inputs": [],
      "name": "renounceOwnership",
      "outputs": [],
      "stateMutability": "nonpayable",
      "type": "function"
    },
    {
      "inputs": [
        {
          "internalType": "uint256",
          "name": "_index",
          "type": "uint256"
        },
        {
          "internalType": "uint256",
          "name": "_result",
          "type": "uint256"
        }
      ],
      "name": "setMatchResult",
      "outputs": [],
      "stateMutability": "nonpayable",
      "type": "function"
    },
    {
      "inputs": [],
      "name": "token",
      "outputs": [
        {
          "internalType": "contract IERC20",
          "name": "",
          "type": "address"
        }
      ],
      "stateMutability": "view",
      "type": "function"
    },
    {
      "inputs": [],
      "name": "totalAwardAmount",
      "outputs": [
        {
          "internalType": "uint256",
          "name": "",
          "type": "uint256"
        }
      ],
      "stateMutability": "view",
      "type": "function"
    },
    {
      "inputs": [],
      "name": "totalBetAmount",
      "outputs": [
        {
          "internalType": "uint256",
          "name": "",
          "type": "uint256"
        }
      ],
      "stateMutability": "view",
      "type": "function"
    },
    {
      "inputs": [
        {
          "internalType": "address",
          "name": "newOwner",
          "type": "address"
        }
      ],
      "name": "transferOwnership",
      "outputs": [],
      "stateMutability": "nonpayable",
      "type": "function"
    },
    {
      "inputs": [
        {
          "internalType": "uint256",
          "name": "_index",
          "type": "uint256"
        },
        {
          "internalType": "string",
          "name": "_team1",
          "type": "string"
        },
        {
          "internalType": "string",
          "name": "_team2",
          "type": "string"
        },
        {
          "internalType": "string",
          "name": "_level",
          "type": "string"
        },
        {
          "internalType": "uint256",
          "name": "_time",
          "type": "uint256"
        },
        {
          "internalType": "uint256",
          "name": "_team1AwardRate",
          "type": "uint256"
        },
        {
          "internalType": "uint256",
          "name": "_team2AwardRate",
          "type": "uint256"
        },
        {
          "internalType": "uint256",
          "name": "_drawAwardRate",
          "type": "uint256"
        }
      ],
      "name": "updateMatch",
      "outputs": [],
      "stateMutability": "nonpayable",
      "type": "function"
    }
  ],
  "bytecode": "0x608080604052346100635760008054336001600160a01b0319821681178355906001600160a01b03167f8be0079c531659141344cd1fd0a4f28419497f9722a3daafe3b4186f6b6457e08380a3600180558060035560045561196a90816100698239f35b600080fdfe6040608081526004908136101561001557600080fd5b600091823560e01c908163057998fc1461117c5781633310a52d1461115e578163379607f514610e365781633ebad8c614610e12578163485cc95514610d27578163613f459414610d08578163715018a614610ca757816379c4264b14610c8857816380b2e7741461085a5781638da5cb5b1461083257816397bf4995146107ca578163bfc54822146104be578163d6b53a8a146102b2578163db1768501461021d578163df9f25bb146101f2578163e1b2c727146101af578163f2fde38b14610114575063fc0c546a146100e957600080fd5b3461011057816003193601126101105760025490516001600160a01b039091168152602090f35b5080fd5b9050346101ab5760203660031901126101ab5761012f611654565b9160018060a01b036101458186541633146117db565b831615610159578361015684611826565b80f35b906020608492519162461bcd60e51b8352820152602660248201527f4f776e61626c653a206e6577206f776e657220697320746865207a65726f206160448201526564647265737360d01b6064820152fd5b8280fd5b9050346101ab57816003193601126101ab5760209282916101ce61163e565b6101d8823561166a565b506001600160a01b03909116835201845220549051908152f35b9050346101ab57816003193601126101ab57602092600a83926101d861021661163e565b913561166a565b9050346101ab57816003193601126101ab576024359161025660018060a01b0361024b8187541633146117db565b60025416151561187d565b821515806102a9575b156102775750610271600b913561166a565b50015580f35b906020606492519162461bcd60e51b8352820152600c60248201526b15dc9bdb99c81c995cdd5b1d60a21b6044820152fd5b5081831061025f565b9050346101ab5760203660031901126101ab57356005548110156101ab57601190600561047a94520290610307827f036b6384b5eca791c62761152d0c79bb0604c104a5fb6f4eb0703f3154bb3db0016116f5565b916103337f036b6384b5eca791c62761152d0c79bb0604c104a5fb6f4eb0703f3154bb3db182016116f5565b907f036b6384b5eca791c62761152d0c79bb0604c104a5fb6f4eb0703f3154bb3db28101546103837f036b6384b5eca791c62761152d0c79bb0604c104a5fb6f4eb0703f3154bb3db383016116f5565b7f036b6384b5eca791c62761152d0c79bb0604c104a5fb6f4eb0703f3154bb3dbb830154946104997f036b6384b5eca791c62761152d0c79bb0604c104a5fb6f4eb0703f3154bb3dbc850154917f036b6384b5eca791c62761152d0c79bb0604c104a5fb6f4eb0703f3154bb3dbd860154937f036b6384b5eca791c62761152d0c79bb0604c104a5fb6f4eb0703f3154bb3dbe870154956104887f036b6384b5eca791c62761152d0c79bb0604c104a5fb6f4eb0703f3154bb3dc07f036b6384b5eca791c62761152d0c79bb0604c104a5fb6f4eb0703f3154bb3dbf8a01549901549984519d8e9d8e61014090818152019061179b565b8d810360208f01529061179b565b928b015289820360608b015261179b565b95608088015260a087015260c086015260e08501526101008401526101208301520390f35b919050346101ab5760603660031901126101ab578135602491823560449485359460018060a01b0391826002541615610798578615610758576105008661166a565b5093338a526009602095018552858a205461072a5760026105208861166a565b5001544211156106f857801515806106ef575b156106c05760096105438861166a565b50338c5201855287868b2055816105598861166a565b50338c5201855280868b205561057b8160056105748a61166a565b500161186d565b90549060031b1c90600182018092116106ae57916064916105a387959460056105748c61166a565b819291549060031b600019811b9283911b169119161790556105d289600c6105ca8b61166a565b500154611911565b600c6105dd8a61166a565b5001556105ec89600354611911565b6003558a60ff19956001876006541617600655600254168a89519c8d9687956323b872dd60e01b8752339087015230908601528401525af19586156106a4577ff853bfec8b816a0281a5e278a38875117916d6197385a82f5fafd4607454fe19949596610660918991610677575b506118d3565b60065416600655815194855242908501523393a380f35b6106979150843d861161069d575b61068f81836115aa565b8101906118bb565b3861065a565b503d610685565b83513d89823e3d90fd5b634e487b7160e01b8b5260118352838bfd5b506b77726f6e672063686f69636560a01b88600c6064948789519562461bcd60e51b8752860152840152820152fd5b50818110610533565b506e1d1bdbc81b185d19481d1bc8189a59608a1b88600f6064948789519562461bcd60e51b8752860152840152820152fd5b506a185b1c9958591e4818995d60aa1b88600b6064948789519562461bcd60e51b8752860152840152820152fd5b7f616d6f756e742073686f756c64206265206d6f7265207468616e20300000000088601c606494602089519562461bcd60e51b8752860152840152820152fd5b6e1b9bdd081a5b9a5d1a585b1a5e9959608a1b88600f606494602089519562461bcd60e51b8752860152840152820152fd5b9050346101ab5760203660031901126101ab5760809250359060056107ee8361166a565b5001549160066107fd8261166a565b50015491600861081a60076108118561166a565b5001549361166a565b50015492815194855260208501528301526060820152f35b505034610110578160031936011261011057905490516001600160a01b039091168152602090f35b9050346101ab5760e03660031901126101ab5767ffffffffffffffff8135818111610c845761088c90369084016115e2565b91602435828111610c80576108a490369083016115e2565b91606435818111610c7c576108bc90369084016115e2565b906108d560018060a01b0361024b818a541633146117db565b60059485549268010000000000000000841015610c695761090760019485810189556109008161166a565b505061166a565b50958251848111610c56578061091d89546116bb565b94601f95868111610c05575b506020908d878411600114610ba65792610b9b575b5050600019600383901b1c191690861b1787555b805187860191858211610b8857819061096b84546116bb565b868111610b37575b506020908d878411600114610ad85792610acd575b5050600019600383901b1c191690861b1790555b604435600287015560038601948151938411610aba57506109bd85546116bb565b828111610a7b575b5060209889928411600114610a1d5791839491849394610a12575b50501b916000199060031b1c19161790555b608435600e82015560a435600f820155601060c435910155549051908152f35b0151925038806109e0565b919083601f198116878552838520945b87828210610a6357505010610a4a575b505050811b0190556109f2565b015160001960f88460031b161c19169055388080610a3d565b84860151875590950194938c01938692508c01610a2d565b858a5260208a20838086018a1c82019260208710610ab1575b01891c01905b818110610aa757506109c5565b8a81558501610a9a565b92508192610a94565b634e487b7160e01b8a5260419052602489fd5b015190503880610988565b9190899450601f198416868452828420935b818110610b1f57508411610b06575b505050811b01905561099c565b015160001960f88460031b161c19169055388080610af9565b8284015185558b969094019360209384019301610aea565b909150838d5260208d20868085018d1c82019260208610610b7f575b85949391018d1c9091019089908f5b838210610b7157505050610973565b81558594508a91018f610b62565b92508192610b53565b634e487b7160e01b8c526041885260248cfd5b01519050388061093e565b9190899450601f1984168c8452828420935b818110610bed57508411610bd4575b505050811b018755610952565b015160001960f88460031b161c19169055388080610bc7565b8284015185558b969094019360209384019301610bb8565b909150898d5260208d20868085018d1c82019260208610610c4d575b85949391018d1c9091019089908f5b838210610c3f57505050610929565b81558594508a91018f610c30565b92508192610c21565b634e487b7160e01b8b526041875260248bfd5b634e487b7160e01b895260418552602489fd5b8680fd5b8580fd5b8480fd5b5050346101105781600319360112610110576020906005549051908152f35b8334610d055780600319360112610d0557805481906001600160a01b03811690610cd23383146117db565b6001600160a01b03191682557f8be0079c531659141344cd1fd0a4f28419497f9722a3daafe3b4186f6b6457e08280a380f35b80fd5b5050346101105781600319360112610110576020906003549051908152f35b83915034610110578260031936011261011057610d42611654565b90610d4b61163e565b8354336001600160a01b039182161492909190610d67846117db565b82851615610de057813b15610da4575091610d9f916101569493166bffffffffffffffffffffffff60a01b60025416176002556117db565b611826565b606490602088519162461bcd60e51b835282015260166024820152756e6f74206120636f6e7472616374206164647265737360501b6044820152fd5b606490602088519162461bcd60e51b8352820152600c60248201526b7a65726f206164647265737360a01b6044820152fd5b9050346101ab57816003193601126101ab57602092600983926101d861021661163e565b919050346101ab5760209283600319360112610d0557823590600191600283541461111b576002808455546001600160a01b0390610e77908216151561187d565b600b610e828361166a565b500154156110d8576009610e958361166a565b5033855201875284832054156110ac5785610eaf8361166a565b5033855201875284832054600b610ec58461166a565b5001540361107d576009610ed88361166a565b5033855201875284832054928085600b610ef18661166a565b50015414611069575b6002600b610f078661166a565b50015414611055575b6003600b610f1d8661166a565b50015414611041575b80850290858204148515171561102e5788670de0b6b3a764000083920498600a610f4f8761166a565b503385520182528989842055610f6a8a600d6105ca8961166a565b600d610f758861166a565b500155610f838a8254611911565b8155604460ff19958987600654161760065560025416918a51948593849263a9059cbb60e01b845233908401528d60248401525af19182156110235790610fce9261100c57506118d3565b60065416600655835191825242868301527fd27486cbbd902c694ff070c4b52eb23c8f7828d3688bd3c7293638daec288808843393a3805551908152f35b6106979150893d8b1161069d5761068f81836115aa565b8751903d90823e3d90fd5b634e487b7160e01b825260118852602482fd5b50601061104d8461166a565b500154610f26565b50600f6110618461166a565b500154610f10565b50600e6110758461166a565b500154610efa565b845162461bcd60e51b8152808701889052600960248201526815dc9bdb99c818995d60ba1b6044820152606490fd5b845162461bcd60e51b81528087018890526006602482015265139bc818995d60d21b6044820152606490fd5b845162461bcd60e51b8152808701889052601960248201527f526573756c74206e6f74207365742c20747279206c61746572000000000000006044820152606490fd5b835162461bcd60e51b8152808601879052601f60248201527f5265656e7472616e637947756172643a207265656e7472616e742063616c6c006044820152606490fd5b9050346101ab57826003193601126101ab5760209250549051908152f35b8334610d0557610100366003190112610d055781356024359267ffffffffffffffff938481116115a6576111b390369083016115e2565b604435858111610c84576111ca90369084016115e2565b90606435868111610c80576111e290369085016115e2565b6111fa60018060a01b0361024b8189541633146117db565b6112038561166a565b508251888111611593578061121883546116bb565b94601f95868111611545575b506020908683116001146114e2578a926114d7575b50508160011b916000199060031b1c19161790555b6112578561166a565b508351600194918501918982116114c457819061127484546116bb565b868111611474575b50602090868311600114611415578a9261140a575b5050600019600383901b1c191690851b1790555b6112ae8561166a565b50600260843591015560036112c28661166a565b50019381519788116113f757506112d984546116bb565b8281116113b2575b506020918711600114611351579580928192879861133a9894611346575b50501b916000199060031b1c19161790555b61131a8161166a565b50600e60a43591015561132c8161166a565b50600f60c43591015561166a565b50601060e43591015580f35b0151925088806112ff565b838652818620909691601f198316875b81811061139c5750978361133a989910611383575b505050811b019055611311565b015160001960f88460031b161c19169055868080611376565b8983015184559285019260209283019201611361565b8487526020872083808a0160051c82019260208b106113ee575b0160051c019084905b8281106113e35750506112e1565b8881550184906113d5565b925081926113cc565b634e487b7160e01b875260419052602486fd5b015190508a80611291565b848b52818b208894509190601f1984168c5b81811061145c57508411611443575b505050811b0190556112a5565b015160001960f88460031b161c191690558a8080611436565b8284015185558a969094019360209384019301611427565b909150838a5260208a208680850160051c820192602086106114bb575b918991869594930160051c01915b8281106114ad57505061127c565b8c815585945089910161149f565b92508192611491565b634e487b7160e01b895260418752602489fd5b015190508a80611239565b848b52818b209250601f1984168b5b81811061152d5750908460019594939210611514575b505050811b01905561124e565b015160001960f88460031b161c191690558a8080611507565b929360206001819287860151815501950193016114f1565b909150838a5260208a208680850160051c8201926020861061158a575b9085949392910160051c01905b81811061157c5750611224565b8b815584935060010161156f565b92508192611562565b634e487b7160e01b885260418652602488fd5b8380fd5b90601f8019910116810190811067ffffffffffffffff8211176115cc57604052565b634e487b7160e01b600052604160045260246000fd5b81601f820112156116395780359067ffffffffffffffff82116115cc5760405192611617601f8401601f1916602001856115aa565b8284526020838301011161163957816000926020809301838601378301015290565b600080fd5b602435906001600160a01b038216820361163957565b600435906001600160a01b038216820361163957565b6005548110156116a5576011906005600052027f036b6384b5eca791c62761152d0c79bb0604c104a5fb6f4eb0703f3154bb3db00190600090565b634e487b7160e01b600052603260045260246000fd5b90600182811c921680156116eb575b60208310146116d557565b634e487b7160e01b600052602260045260246000fd5b91607f16916116ca565b9060405191826000825492611709846116bb565b9081845260019485811690816000146117785750600114611735575b5050611733925003836115aa565b565b9093915060005260209081600020936000915b81831061176057505061173393508201013880611725565b85548884018501529485019487945091830191611748565b91505061173394506020925060ff191682840152151560051b8201013880611725565b919082519283825260005b8481106117c7575050826000602080949584010152601f8019910116010190565b6020818301810151848301820152016117a6565b156117e257565b606460405162461bcd60e51b815260206004820152602060248201527f4f776e61626c653a2063616c6c6572206973206e6f7420746865206f776e65726044820152fd5b600080546001600160a01b039283166001600160a01b03198216811783559216907f8be0079c531659141344cd1fd0a4f28419497f9722a3daafe3b4186f6b6457e09080a3565b60048210156116a5570190600090565b1561188457565b60405162461bcd60e51b815260206004820152600f60248201526e139bdd081a5b9a5d1a585b1a5e9959608a1b6044820152606490fd5b90816020910312611639575180151581036116395790565b156118da57565b60405162461bcd60e51b815260206004820152600f60248201526e1d1c985b9cd9995c8819985a5b1959608a1b6044820152606490fd5b9190820180921161191e57565b634e487b7160e01b600052601160045260246000fdfea26469706673582212205a10bbc739fb9f6e61f83dfa5c353735abb0038a89fb1893abedf07947fe5bbe64736f6c63430008110033",
  "linkReferences": {},
  "deployedLinkReferences": {}
}